:020000040800F2
:1000000030080020A1010008F1200008D91F0008D5
:10001000ED200008E9020008392D0008000000006A
:10002000000000000000000000000000852400081F
:100030003D03000800000000F520000887240008A8
:10004000BB010008BB010008BB010008BB010008A0
:10005000BB010008BB010008BB010008BB01000890
:10006000BB010008BB010008BB010008BB01000880
:10007000BB010008BB010008ED020008FD020008FA
:10008000BB010008BB010008BB010008BB01000860
:10009000BB010008BB010008BB010008BB01000850
:1000A000BB010008BB010008BB010008BB01000840
:1000B000BB010008BB010008BB010008BB01000830
:1000C000BB010008BB010008BB010008BB01000820
:1000D000BB010008252D0008BB010008BB0100087A
:1000E000BB010008BB010008BB010008BB01000800
:1000F000BB010008BB010008BB010008BB010008F0
:10010000BB010008BB010008BB010008BB010008DF
:10011000BB010008BB010008BB010008BB010008CF
:10012000BB010008BB010008BB010008BB010008BF
:10013000BB010008BB010008BB010008BB010008AF
:10014000BB010008BB010008BB010008BB0100089F
:10015000BB010008BB010008BB010008BB0100088F
:10016000BB010008BB010008BB010008BB0100087F
:10017000BB010008BB0100080000000000000000F7
:10018000BB010008BB010008DFF810D000F07CF8CC
:1001900000480047F12D0008AFF300803008002030
:1001A0000648804706480047FEE7FEE7FEE7FEE711
:1001B000FEE7FEE7FEE7FEE7FEE7FEE701250008B3
:1001C000890100082DE9F05F0546002092469B4614
:1001D00088460646814640241BE02846414647465D
:1001E000224600F041F853465A46C01A914110D3B6
:1001F00011461846224600F028F82D1A67EB010830
:100200004F4622460120002100F01FF817EB00099D
:100210004E41201EA4F10104DFDC484631462A4647
:100220004346BDE8F09FD2B201E000F8012B491E21
:10023000FBD270470022F6E710B513460A46044683
:100240001946FFF7F0FF204610BD202A04DB203AB4
:1002500000FA02F1002070479140C2F1200320FA19
:1002600003F3194390407047202A04DB203A21FA17
:1002700002F00021704721FA02F3D040C2F12002BF
:100280009140084319467047064C074D06E0E06868
:1002900040F0010394E8070098471034AC42F6D3CD
:1002A000FFF776FF802E0008A02E000810B50B483F
:1002B000007800F0010080B10848007820F00100CB
:1002C000064908704FF48071054800F0EFFA0348C2
:1002D0004288011D034801F023FE10BD10010020DB
:1002E000001000481803002000BFFEE710B50248C8
:1002F00000F086F810BD0000E403002010B50248AD
:1003000000F07EF810BD00009C03002030B590F88E
:10031000444004F01C050124AC40056C6C6004688A
:1003200063608468102C04D10468A2600468E160F2
:1003300003E00468A1600468E26030BD704772B6F3
:1003400000BFFEE70146002291F82500022808D0F0
:100350000420C86300BF002081F8240000BF0120F2
:1003600070470868006820F00E000B681860086885
:10037000006820F001000B68186091F8440000F05C
:100380001C03012098400B6C5860012081F8250067
:1003900000BF002081F8240000BF1046E0E770B5E0
:1003A0000446002594F82500022803D00420E063C9
:1003B000012520E02068006820F00E002168086018
:1003C0002068006820F001002168086094F844006B
:1003D00000F01C0101208840216C4860012084F855
:1003E000250000BF002084F8240000BFA06B10B1DE
:1003F0002046A16B8847284670BD0146C86B7047F0
:1004000070B50446206C05682068066894F84400BE
:1004100000F01C01042088402840E0B106F00400F0
:10042000C8B12068006800F0200028B92068006882
:1004300020F004002168086094F8440000F01C01DA
:1004400004208840216C4860206B002856D020464C
:10045000216B884752E094F8440000F01C01022010
:100460008840284018B306F0020000B320680068F6
:1004700000F0200040B92068006820F00A002168E0
:100480000860012084F8250094F8440000F01C0165
:1004900002208840216C486000BF002084F82400BE
:1004A00000BFE06A50B32046E16A884726E094F82E
:1004B000440000F01C01082088402840F0B106F0FC
:1004C0000800D8B12068006820F00E00216808609C
:1004D00094F8440000F01C0101208840216C486021
:1004E0000120E06384F8250000BF002084F8240088
:1004F00000BF606B10B12046616B884770BD000083
:1005000010B5014609B9012010BD3E4B086898425C
:100510000BD23D4B0868C01A1423B0FBF3F08000E7
:1005200048643948083808640AE0364B0868C01A3D
:100530001423B0FBF3F080004864324808380864A4
:10054000022081F825000868026847F6F0708243AF
:10055000D1E9020318430B6918434B6918438B69AF
:100560001843CB6918430B6A1843024308680260BA
:100570008868B0F5804F3AD0234B083B086C98420E
:100580001BD1D0F8A80091F8443003F01C040F23CD
:10059000A34098431C4BA033186091F8443003F0FB
:1005A0001C0348689840184B083BD3F8A830184300
:1005B000154B083BC3F8A80019E01248A0300068AA
:1005C00091F8443003F01C040F23A34098430D4BD3
:1005D000A033186091F8443003F01C034868984039
:1005E000084BA0331B681843064BA033186000204B
:1005F000C863012081F82500002081F8240000BF95
:1006000082E7000008040240080002402DE9F041A2
:1006100004460D4616461F464FF0000800BF94F8EA
:100620002400012802D10220BDE8F081012084F8D5
:10063000240000BF94F8250001282CD1022084F862
:1006400025000020E0632068006820F00100216898
:1006500008603B46324629462046FFF757FE206B8E
:1006600030B12068006840F00E00216808600BE09F
:100670002068006820F00400216808602068006895
:1006800040F00A00216808602068006840F001001E
:100690002168086006E000BF002084F8240000BF45
:1006A0004FF002084046BFE778B503460022E5E078
:1006B000012696400D6805EA0604002C7DD04D68A1
:1006C000012D08D04D68022D05D04D68112D02D0A6
:1006D0004D68122D13D1986856000325B540A843E4
:1006E0005600CD68B540284398605868012595406C
:1006F000A8430D79C5F300159540284358600D793E
:1007000005F00305032D09D1D86A01259540A843BA
:100710000D79C5F3C00595402843D862D8685600C6
:100720000325B540A84356008D68B5402843D860DE
:100730004D68022D02D04D68122D13D1D60803F159
:10074000200555F826005507EE0E0F25B540A843A5
:100750005607F60E0D69B5402843D60803F120056B
:1007600045F82600186856000325B540A8430D79C2
:1007700005F003055600B540284318604D6805F0A4
:100780008055B5F1805F78D100BF3F4D2D6E45F0AB
:1007900001053D4E356635462D6E05F00105009587
:1007A00000BF00BF4FEAB635960855F826009507FA
:1007B0002E0F0F25B540A84300E05EE0B3F1904F47
:1007C00001D100251EE0314DAB4201D1012519E0D8
:1007D0002F4DAB4201D1022514E02E4DAB4201D189
:1007E00003250FE02C4DAB4201D104250AE02B4D2F
:1007F000AB4201D1052505E0294DAB4201D10625CB
:1008000000E007259607360FB5402843254D96088A
:1008100045F82600244D2868A0434D6805F480352E
:10082000B5F5803F00D120431F4D28602D1D28685D
:10083000A0434D6805F40035B5F5003F00D12043D5
:10084000194D2D1D28602D1D2868A0434D6805F405
:100850008015B5F5801F00D12043134D0835286061
:100860002D1D2868A0434D6805F40015B5F5001F3F
:1008700000D120430C4D0C352860521C0D68D5402A
:10088000002D7FF415AF78BD001002400004004831
:1008900000080048000C0048001000480014004800
:1008A00000180048080001400004014010B54269EA
:1008B00021EA020302EA010443EA0443836110BD12
:1008C0000AB1816100E08162704700000148006860
:1008D00070470000040000200348006803490978BD
:1008E0000844014908607047040000200C00002003
:1008F00010B50024032000F0A9F8002000F008F84B
:1009000008B1012401E000F02FF8204610BD0000DE
:1009100070B50446002511480078D8B10F4800781A
:100920004FF47A71B1FBF0F00D490968B1FBF0F6B4
:10093000304601F033F858B9102C07D20022214676
:10094000501E00F045F80748046004E0012502E06D
:10095000012500E00125284670BD00000C000020A4
:10096000000000200800002008B500BF0D48006E00
:1009700040F001000B4908660846006E00F00100D7
:10098000009000BF00BF00BF0846806D40F080505F
:1009900088650846806D00F08050009000BF00BF61
:1009A00008BD0000001002400146084600280DDB8B
:1009B00000BF00BF00F01F0301229A4043099B00C3
:1009C00003F1E023C3F8002100BF00BF00BF704760
:1009D0002DE9F05F80460D461646002702F0DCF94F
:1009E000074639462A46334601F00700C0F1070A98
:1009F000BAF1040F02D94FF0040A01E0C0F1070A6E
:100A0000D14600F1040ABAF1070F02D24FF0000AF2
:100A100001E0A0F1030AD4464FF0010A0AFA09FAEC
:100A2000AAF1010A0AEA020A0AFA0CFA4FF0010BCB
:100A30000BFA0CFBABF1010B0BEA030B4AEA0B04BC
:100A40002146404602F0B0F9BDE8F09F00BF00F03B
:100A50000702064B19684FF6FF031940044B0B437E
:100A600043EA0221014B196000BF70470CED00E022
:100A70000000FA050246B2F5007F2AD11D48006841
:100A800000F4C060B0F5007F32D01A48006820F44E
:100A9000C06040F40070174B18601748006832239C
:100AA0005843164BB0FBF3F0411C00E0491E1148BF
:100AB000406900F48060B0F5806F01D10029F5D164
:100AC0000C48406900F48060B0F5806F10D10320BD
:100AD00070470848006800F4C060B0F5806F07D028
:100AE0000448006820F4C06040F48060014B186046
:100AF0000020EDE7007000400000002040420F00A1
:100B00000248006800F4C0607047000000700040B8
:100B10002DE9F84304460025A846208800F400602B
:100B2000B0F5006F30D1606E80B1B0F5800F13D09A
:100B3000B0F5000F03D0B0F5400F15D113E0FB481E
:100B4000C06840F48030F949C8600FE00021201DE2
:100B500001F0D2FA054609E0002104F1200001F07D
:100B600091FB054602E001E0012500BF00BF55B939
:100B7000EE488830006820F44000616E0843EB497D
:100B8000C1F8880000E0A846208800F48050B0F545
:100B9000805F30D1A06E80B1B0F1807F13D0B0F112
:100BA000007F03D0B0F1407F15D113E0DF48C0686B
:100BB00040F48030DD49C8600FE00021201D01F0C5
:100BC0009BFA054609E0002104F1200001F05AFBE0
:100BD000054602E001E0012500BF00BF55B9D3483A
:100BE0008830006820F04070A16E0843CF49C1F8FA
:100BF000880000E0A846206800F40030B0F5003F0F
:100C000077D14FF00009C948806D012121EA1070A9
:100C100078B100BFC548806D40F08050C3498865F9
:100C20000846806D00F08050009000BF00BF4FF07C
:100C30000109BF48006840F48070BD490860FFF7B3
:100C400045FE074606E0FFF741FEC01B022801D91A
:100C5000032505E0B648006800F480700028F2D053
:100C600000BF85BBB1489030006800F44076D6B133
:100C7000D4F88400B04216D0AC489030006820F41C
:100C80004076AA48D0F8900040F48030A749C1F8D7
:100C900090000846D0F8900020F48030C1F8900011
:100CA0000846C0F8906006F00100A8B1FFF70EFEFC
:100CB000074609E0FFF70AFEC01B41F2883188426F
:100CC00002D9032507E017E098489030006800F04B
:100CD00002000028EED000BF65B99448903000684B
:100CE00020F44070D4F8841008439049C1F8900073
:100CF00003E00CE0A84600E0A846B9F1010F05D1D9
:100D00008A48806D20F080508849886500BF20782F
:100D100000F0010048B185488830006820F00300E9
:100D2000A16B08438149C1F88800207800F00200D7
:100D3000022809D17D488830006820F00C00E16B62
:100D400008437A49C1F88800207800F0040004289C
:100D500009D176488830006820F03000216C0843C3
:100D60007249C1F88800207800F00800082809D1ED
:100D70006E488830006820F0C000616C08436B4901
:100D8000C1F88800207800F01000102809D16748C9
:100D90008830006820F44070A16C08436349C1F8B2
:100DA0008800207800F02000202809D15F48883092
:100DB000006820F44060E16C08435C49C1F8880099
:100DC000208800F40070B0F5007F09D157488830C2
:100DD000006820F44020E16D08435449C1F88800C0
:100DE000208800F48060B0F5806F09D14F488830CA
:100DF000006820F44010216E08434C49C1F8880077
:100E0000207800F04000402809D148488830006828
:100E100020F44050216D08434449C1F888002078EF
:100E200000F08000802809D140488830006820F414
:100E30004040616D08433D49C1F88800208800F4B6
:100E40008070B0F5807F09D138488830006820F480
:100E50004030A16D08433549C1F88800208800F46E
:100E60000050B0F5005F1FD130488830006820F096
:100E70004060E16E08432D4988310860E06EB0F1B2
:100E8000006F06D12948C06840F480102749C86027
:100E90000AE0E06EB0F1806F06D10121201D01F063
:100EA0002BF9054605B1A846206800F40020B0F5EE
:100EB000002F1FD11D488830006820F04060216F4E
:100EC00008431A4988310860206FB0F1006F06D1DD
:100ED0001648C06840F480101449C8600AE0206FCA
:100EE000B0F1806F06D10121201D01F005F9054602
:100EF00005B1A846206800F48020B0F5802F24D1E9
:100F00000A488830006820F04060616F0843074954
:100F100088310860606FB0F1006F0BD10348C06882
:100F200040F480100149C8600FE00000001002404A
:100F300000700040606FB0F1806F06D10121201D6C
:100F400001F0DAF8054605B1A846208800F4804093
:100F5000B0F5804F1FD12248006820F04050A16FAB
:100F600008431F490860A06FB0F1805F07D10221DC
:100F7000201D01F0C1F805466DB1A8460BE0A06F39
:100F8000B0F1005F07D1022104F1200001F07AF9ED
:100F9000054605B1A846208800F40040B0F5004F92
:100FA00009D10F48006820F08040E16F08430C49E8
:100FB0008839C1F88800206800F48030B0F5803F9F
:100FC0000AD10748006820F00040D4F88010084398
:100FD00003498839C1F888004046BDE8F88300001D
:100FE000881002402DE9F04104460D4614B9012055
:100FF000BDE8F0815548006800F00700A8420ED215
:101000005248006820F0070028435049086008460D
:10101000006800F00700A84201D00120E8E720782E
:1010200000F00100002840D06068032806D148483D
:10103000006800F00070D8B90120D9E76068022884
:1010400006D14348006800F4003088B90120CFE79A
:10105000606830B93E48006800F0020040B90120E5
:10106000C6E73B48006800F4806008B90120BFE78C
:101070003748806820F0030061680843344988607D
:10108000FFF724FC064608E0FFF720FC801B41F236
:101090008831884201D90320AAE72D48806800F0F2
:1010A0000C006168B0EB810FEED1207800F00200F7
:1010B000022807D12648806820F0F000A168084384
:1010C000234988602148006800F00700A8420ED933
:1010D0001E48006820F0070028431C4908600846A5
:1010E000006800F00700A84201D0012080E72078C6
:1010F00000F00400042807D11548806820F4E0605F
:10110000E168084312498860207800F00800082848
:1011100008D10F48806820F46050216940EAC1007E
:101120000B49886000F046F809498968C1F303114A
:10113000084A515C01F01F01C84007490860074890
:101140000068FFF7E5FB0746384651E700200240FC
:1011500000100240382E0008000000200800002087
:1011600001480068704700000000002000B5FFF74C
:10117000F7FF05498968C1F30221044A515C01F077
:101180001F01C84000BD000000100240482E0008AA
:1011900000B5FFF7E5FF05498968C1F3C221044A9C
:1011A000515C01F01F01C84000BD0000001002406A
:1011B000482E0008F0B500230020DFF8D4C0DCF88A
:1011C00008C00CF00C01DFF8C8C0DCF80CC00CF053
:1011D000030719B10C291ED1012F1CD1DFF8B0C0B3
:1011E000DCF800C00CF0080CBCF1000F06D1DFF8F1
:1011F000A0C0DCF894C0CCF3032305E0DFF890C076
:10120000DCF800C0CCF30313DFF888C05CF82330AF
:1012100041B9184606E0042901D11F4802E0082917
:1012200000D11E480C2932D1DFF864C0DCF80CC0B4
:101230000CF00304012C09D0022C02D0032C04D1A1
:1012400001E0154A04E0154A02E000BF1A4600BF5B
:1012500000BFDFF83CC0DCF80CC0CCF3021C0CF182
:101260000106DFF82CC0DCF80CC0CCF3062C0CFB1C
:1012700002FCBCFBF6F2DFF818C0DCF80CC0CCF3C3
:10128000416C0CF1010C4FEA4C05B2FBF5F0F0BDDE
:1012900000100240502E00080024F40000127A00D2
:1012A0002DE9F843044614B90120BDE8F883F94854
:1012B000806800F00C06F748C06800F0030720784B
:1012C00000F01000102877D11EB10C2E76D1012F1E
:1012D00074D1F048006800F0020018B1A06908B9A4
:1012E0000120E2E7EB48216A006800F0080020B125
:1012F000E848006800F0F00005E0E6489430006837
:1013000000F47060000981421FD9206A01F06CF876
:1013100008B10120C9E700BFDE48006840F00800BE
:10132000DC4908600846006820F0F000216A0843A4
:10133000D849086000BF0846406820F47F40E16952
:1013400040EA0120D34948601FE000BFD14800684F
:1013500040F00800CF4908600846006820F0F0001F
:10136000216A0843CB49086000BF0846406820F462
:101370007F40E16940EA0120C64948602EB9206AF1
:1013800001F032F808B101208FE7FFF713FFC149E0
:101390008968C1F30311C04A515C01F01F01C840C4
:1013A000BE490860BE480068FFF7B2FA8046B8F14F
:1013B000000F4ED0404678E74BE0FFE7A06980B3CE
:1013C000B448006840F00100B2490860FFF77EFAB7
:1013D000054606E0FFF77AFA401B022801D90320F0
:1013E00063E7AC48006800F002000028F2D000BFBC
:1013F000A848006840F00800A64908600846006850
:1014000020F0F000216A0843A249086000BF0846A6
:10141000406820F47F40E16940EA01209D4948602E
:1014200017E0FFE79B48006820F001009949086039
:10143000FFF74CFA054606E0FFF748FA401B022882
:1014400001D9032031E79348006800F0020000282A
:10145000F2D1207800F0010000285CD0082E03D0E3
:101460000C2E0AD1032F08D18A48006800F40030FE
:1014700088B3606878BB012017E700BF6068B0F5EB
:10148000803F06D18348006840F48030814908607D
:101490001AE06068B0F5A02F0BD17E48006840F4D8
:1014A00080207C4908600846006840F4803008606D
:1014B0000AE07848006820F48030764908600846E1
:1014C000006820F48020086000BF606890B1FFF7DA
:1014D000FDF9054607E01EE0FFF7F8F9401B642818
:1014E00001D90320E1E66B48006800F400300028D1
:1014F000F2D010E0FFF7EAF9054606E0FFF7E6F95B
:10150000401B642801D90320CFE66248006800F43C
:1015100000300028F2D1207800F00200022852D1D9
:10152000042E03D00C2E14D1022F12D1594800687A
:1015300000F4806018B1E06808B90120B5E65548AC
:10154000406820F0F850217C40EA01605149486031
:1015500039E0E06800B34F48006840F480704D49BE
:101560000860FFF7B3F9054606E0FFF7AFF9401B47
:10157000022801D9032098E64648006800F48060FC
:101580000028F2D04348406820F0F850217C40EA1F
:1015900001604049486016E03E48006820F48070D1
:1015A0003C490860FFF792F9054606E0FFF78EF91F
:1015B000401B022801D9032077E63648006800F472
:1015C00080600028F2D1207800F00800082836D189
:1015D0006069D0B12F489430006840F001002D4977
:1015E000C1F89400FFF772F9054606E0FFF76EF9BF
:1015F000401B022801D9032057E626489430006892
:1016000000F002000028F1D019E022489430006870
:1016100020F001001F49C1F89400FFF757F9054673
:1016200006E0FFF753F9401B022801D903203CE6EE
:1016300018489430006800F002000028F1D12078AA
:1016400000F00400042872D14FF000091148806DA9
:1016500000F0805078B900BF0E48806D40F0805097
:101660000C4988650846806D00F08050009000BFEE
:1016700000BF4FF001090B48006800F4807000BB08
:101680000848006840F4807006490860FFF71EF9BA
:10169000054610E000100240382E0008000000202F
:1016A0000800002000700040FFF710F9401B0228DE
:1016B00001D90320F9E5B548006800F480700028DE
:1016C000F2D000BFA068012808D1B148006840F0FE
:1016D0000100AF499039C1F8900021E0A0680528C9
:1016E0000FD1AB48006840F00400A9499039C1F817
:1016F00090000846D0F8900040F00100C1F890003A
:101700000EE0A348006820F00100A1499039C1F81B
:1017100090000846D0F8900020F00400C1F8900036
:1017200000BFA068A0B1FFF7D1F8054609E02EE0A0
:10173000FFF7CCF8401B41F28831884201D90320E1
:10174000B3E59348006800F002000028F0D012E0F2
:10175000FFF7BCF8054608E0FFF7B8F8401B41F278
:101760008831884201D903209FE58948006800F04C
:1017700002000028F0D1B9F1010F07D18448903858
:10178000806D20F0805082499039886500BFA06A42
:1017900000287DD0A06A02287BD17D489038C76898
:1017A00007F00301E06A814228D107F07001206B45
:1017B000401EB1EB001F21D107F4FE41606BB1EB7D
:1017C000002F1BD107F40031A06B072801D00120A6
:1017D00000E00020814211D107F4C001A08F012256
:1017E000C2EB5000B1EB405F08D107F0C061402070
:1017F000005DC2EB5000B1EB406F6CD00C2E68D096
:1018000063489038006800F0806028B960489038DC
:10181000006800F0805008B1012046E55C4890382F
:10182000006820F080705A4990390860FFF74EF840
:10183000054606E0FFF74AF8401B022801D90320BD
:1018400033E553489038006800F000700028F1D16B
:10185000D4E90B10401E41EA0011606B41EA0021FF
:10186000A08F0122C2EB500041EA40514020005DB0
:10187000C2EB500041EA4061A06B000941EA4040E0
:1018800043499039C968434A11400843404901E03F
:1018900066E046E09039C8600846006840F0807015
:1018A00008600846C06840F08070C860FFF70EF816
:1018B000054606E0FFF70AF8401B022801D903207D
:1018C000F3E433489038006800F000700028F1D04D
:1018D0005AE00120E9E42E489038006800F00070DA
:1018E000F0BB2B489038006840F080702849903950
:1018F00008600846C06840F08070C860FEF7E6FFE8
:10190000054606E0FEF7E2FF401B022801D903204E
:10191000CBE41F489038006800F000700028F1D038
:1019200032E00C2E2ED01A489038006820F08070DB
:101930001749903908600846006800F0205020B927
:101940000846C06820F00300C86011489038C0689D
:10195000114908400E499039C860FEF7B7FF00E012
:1019600012E0054606E0FEF7B1FF401B022801D950
:1019700003209AE406489038006800F000700028C0
:10198000F1D101E0012090E400208EE400700040DD
:10199000901002408C809DF9FFFFEEFE70B504466A
:1019A0002546681EB0F1807F01D301200FE0681E3C
:1019B0004FF0E02148610F214FF0FF3001F0F4F9C2
:1019C00000204FF0E021886107200861002070BDF1
:1019D0007047704770B50446A56FE66F2068806851
:1019E00000F0800080281AD1212D18D1206880684D
:1019F00020F0800021688860E06E68B1E06EFEF73C
:101A0000A1FC48B1E06EFEF7F8FC202804D11020BC
:101A1000C4F88000032070BD204600F017FF206846
:101A2000806800F0400040281AD1222E18D120688A
:101A3000806820F0400021688860206F68B1206FC6
:101A4000FEF780FC48B1206FFEF7D7FC202804D1B8
:101A50001020C4F880000320DDE7204600F0CBFE14
:101A60000020D8E7704700002DE9F04704462068C1
:101A7000C569206806682068876840F60F0005EA97
:101A80000009B9F1000F0CD105F0200048B106F0B3
:101A9000200030B1606E10B12046616E8847BDE80D
:101AA000F087B9F1000F7DD007F0010018B99C480C
:101AB00030400028F7D005F0010058B106F48070DE
:101AC00040B1012021680862D4F8800040F0010094
:101AD000C4F8800005F0020058B107F0010040B1E1
:101AE000022021680862D4F8800040F00400C4F8A5
:101AF000800005F0040058B107F0010040B1042057
:101B000021680862D4F8800040F00200C4F8800028
:101B100005F0080070B106F0200010B907F00100D0
:101B200040B1082021680862D4F8800040F0080025
:101B3000C4F8800005F4006060B106F0806048B130
:101B40004FF4006021680862D4F8800040F0200063
:101B5000C4F88000D4F8800090B305F0200038B1BC
:101B600006F0200020B1606E10B12046616E8847FB
:101B7000D4F880A02068806800F04000402802D09F
:101B80000AF0280028B3204600F035FE206880685F
:101B900000F04000402818D12068806820F0400004
:101BA000216800E01CE08860206F50B15D48216F23
:101BB0008863206FFEF7F3FB10B1206F816B8847BD
:101BC0000DE02046FFF74EFF09E02046FFF74AFFF1
:101BD00005E02046FFF746FF0020C4F880005EE7DE
:101BE000206E012876D105F01000002872D006F092
:101BF000100000286ED010202168086220688068DC
:101C000000F0400040283CD1206F006840681FFA77
:101C100080F8B8F1000F33D0B4F8580040452FDDFC
:101C2000A4F85A80206F0068006800F02000F0B926
:101C30002068006820F4807021680860206880684F
:101C400020F00100216888602068806820F0400052
:101C5000216888602020E0670020206620680068F6
:101C600020F0100021680860206FFEF76BFBB4F8CD
:101C70005800B4F85A20801A81B22046FFF7A8FE17
:101C80000DE734F8580F6188401A1FFA80F8608811
:101C9000583CE8B1B8F1000F1AD02068006820F471
:101CA0009070216808602068806820F00100216839
:101CB00088602020E0670020206660662068006859
:101CC00020F010002168086041462046FFF780FEA2
:101CD000E5E6FFE705F4801050B107F4800038B165
:101CE0004FF48010216808622046FFF772FED6E6A6
:101CF00005F0800040B106F0800028B1A06E10B160
:101D00002046A16E8847CAE605F0400030B106F0D3
:101D1000400018B1204600F089FDC0E600BFBEE6D5
:101D200020010004B326000810B504460CB90120B8
:101D300010BDA06900B100E000BFA06F28B900206D
:101D400084F87400204600F029F82420A067206859
:101D5000006820F0010021680860204600F080FD46
:101D6000012800D1E4E7606A10B1204600F0ECFBE6
:101D70002068406820F490402168486020688068AE
:101D800020F02A00216888602068006840F0010087
:101D900021680860204600F053FCC9E710B5A8B0E0
:101DA0000446142123A8FEF745FA882101A8FEF76E
:101DB00041FA3C492068884272D1012001900020FC
:101DC0000F9001A8FEF7A4FE08B1FEF7B8FA00BF15
:101DD0003548006E40F48040334908660846006E7E
:101DE00000F48040009000BF00BF00BF0846C06CF8
:101DF00040F00100C8640846C06C00F0010000908B
:101E000000BF00BF4FF4C060239002202490002048
:101E10002590032026900720279023A94FF090407B
:101E2000FEF742FC21482249086002204860002158
:101E30001F488160C1608021016100214161816191
:101E4000C1610162FEF75CFB08B1FEF778FA00BFE2
:101E500017482067846200BF144814381549086089
:101E6000022048601021134881600021C160802158
:101E70000161002141618161C1610162FEF740FBA6
:101E800008B1FEF75CFA00BF0A48E066846200BF52
:101E9000002211462520FEF79BFD2520FEF784FD3C
:101EA00028B010BD00380140001002405800024028
:101EB0009C030020E403002070B504460D4616463E
:101EC000E06F202825D105B10EB9012070BD00BFFB
:101ED00094F87400012801D10220F7E7012084F86A
:101EE000740000BF002020660B49206888420AD099
:101EF0002068406800F4000028B12068006840F0C5
:101F000080602168086032462946204600F060FE65
:101F1000DCE70220DAE700000080004070477047ED
:101F200070B504460E461546A06F20284AD106B16A
:101F30000DB9012070BD00BF94F87400012801D1D3
:101F40000220F7E7012084F8740000BF44F84C6FCA
:101F5000A580E580002060632120E062206A4C3C7F
:101F600000B31948E16EC8621848E16E086318486A
:101F7000E16E48630020E16E8863236803F1280264
:101F80002B46E16CE06EFEF741FB58B11020C4F81F
:101F9000800000BF002084F8740000BF2020A067EC
:101FA0000120C7E740202168086200BF002084F8B4
:101FB000740000BF2068806840F08000216888605D
:101FC0000020B7E70220B5E7B1270008E92700089D
:101FD000CB2600087047704700BFFEE708B500BF7A
:101FE0000E48806C40F001000C4988640846806C03
:101FF00000F00100009000BF00BF002211460E203B
:10200000FEF7E6FC0E20FEF7CFFC002211460F2063
:10201000FEF7DEFC0F20FEF7C7FC08BD00100240F3
:1020200000B587B0142102A8FEF704F900BF1D48CF
:10203000C06C40F080001B49C8640846C06C00F0CA
:102040008000019000BF00BF00BF0846C06C40F098
:102050001000C8640846C06C00F01000019000BF7A
:1020600000BF00BF0846C06C40F00100C8640846CD
:10207000C06C00F00100019000BF00BF0022891574
:102080000948FEF71DFC4FF4807002900120039078
:1020900000200490059002A90348FEF705FB07B055
:1020A00000BD0000001002400010004810B50D48AF
:1020B0000D4908604FF41650486000210A488160BD
:1020C000C16001610C21416100218161C161016236
:1020D0000020054948620846FFF726FE08B1FEF7D2
:1020E0002EF910BD003801401803002000BFFEE7A4
:1020F00000BFFEE7704700002DE9F04104460F469F
:1021000000255C48C06800F0030090B15948C068E1
:1021100000F003002168884209D1206838B1554891
:10212000C068C0F30210401C6168884233D00125AA
:1021300031E02068012804D0022809D003281AD1F0
:102140000DE04C48006800F0020000B9012514E0E1
:102150004848006800F4806000B901250DE045485A
:10216000006800F4003028B94248006800F480207C
:1021700000B9012501E0012500BF00BF5DB9D4E928
:102180000010401E41EA00103A49C96821F073016D
:1021900008433849C860002D68D13648006820F0EF
:1021A000806034490860FEF791FB064606E0FEF7C2
:1021B0008DFB801B022801D9032505E02D4800680E
:1021C00000F000600028F2D100BFCDBB6FB9A0685D
:1021D0000002E168090940EA414026490969264AA6
:1021E000114008432349086120E0012F0FD1A06866
:1021F0000002218A0122C2EB510140EA41501D49EF
:1022000009691E4A114008431A4908610EE0A06896
:102210000002217D0122C2EB510140EA41601549D3
:102220000969174A114008431249086111480068BA
:1022300040F080600F490860FEF748FB064607E063
:1022400014E0FEF743FB801B022801D9032505E0BB
:102250000848006800F000600028F2D000BF2DB9E7
:1022600004480069A1690843024908612846BDE89D
:10227000F081000000100240FF80FDFFFF809FFF03
:10228000FF80FFF92DE9F04104460F460025534831
:10229000C06800F0030090B15048C06800F003002F
:1022A0002168884209D1206838B14C48C068C0F321
:1022B0000210401C6168884233D0012531E020685B
:1022C000012804D0022809D003281AD10DE0434880
:1022D000006800F0020000B9012514E03F480068E2
:1022E00000F4806000B901250DE03C48006800F46E
:1022F000003028B93948006800F4802000B9012571
:1023000001E0012500BF00BF5DB9D4E90010401E07
:1023100041EA00103149C96821F0730108432F498F
:10232000C860002D56D12D48006820F080502B4900
:102330000860FEF7CBFA064606E0FEF7C7FA801BF8
:10234000022801D9032505E02448006800F0005068
:102350000028F2D100BF75BB6FB9A0680002E16828
:10236000090940EA41401D4949691D4A1140084395
:102370001A4948610EE0A0680002217C0122C2EBEC
:10238000510140EA416015494969164A1140084324
:10239000124948611148006840F080500F490860B8
:1023A000FEF794FA064607E0FEF790FA801B022833
:1023B00002D9032506E00DE00848006800F000504F
:1023C0000028F1D000BF2DB9044840696169084375
:1023D000024948612846BDE8F08100000010024033
:1023E000FF80FDFFFF80FFF9F8B504460026234873
:1023F000806D00F0805018B1FEF782FB054616E0B4
:1024000000BF1E48806D40F080501C49886508461A
:10241000806D00F08050009000BF00BFFEF770FBA1
:1024200005461648806D20F0805014498865B5F542
:10243000007F07D1802C10D9A02C01D902260CE0F6
:1024400001260AE0802C01D9032606E0802C01D168
:10245000022602E0702C00D101260948006820F015
:1024600007003043064908600846006800F007008E
:10247000B04201D00120F8BD0020FCE7001002406E
:1024800000200240704710B5FEF726FA10BD00B5D7
:1024900097B0442106A8FDF7CDFE142101A8FDF751
:1024A000C9FE4FF40070FEF7E5FA08B1FDF747FFEB
:1024B0000120069000040790022010900321119142
:1024C00001211291142113910721149102211591D8
:1024D000169106A8FEF7E4FE08B1FDF730FF0F20C5
:1024E00001900320029000200390049005900421A5
:1024F00001A8FEF777FD08B1FDF721FF17B000BD79
:102500000E48006840F470000C4908600C480068F0
:1025100040F001000A490860002088600846006811
:1025200008490840064908608814C86008460068E1
:1025300020F48020086000208861704788ED00E06A
:1025400000100240FFFFF6EA90F8241001F00101AC
:1025500039B10168496821F40031826A1143026887
:10256000516090F8241001F00201022907D101689E
:10257000496821F48031C26A11430268516090F8C1
:10258000241001F00401042907D10168496821F4ED
:102590008021026B11430268516090F8241001F011
:1025A0000801082907D10168496821F40041426BFC
:1025B00011430268516090F8241001F010011029B5
:1025C00007D10168896821F48051826B1143026848
:1025D000916090F8241001F02001202907D10168B2
:1025E000896821F40051C26B11430268916090F830
:1025F000241001F04001402913D10168496821F4F9
:102600008011026C114302685160016CB1F5801FAA
:1026100007D10168496821F4C001426C1143026886
:10262000516090F8241001F08001802907D10168E1
:10263000496821F40021826C11430268516070479F
:1026400038B504460020C4F88000FEF73FF905467F
:102650002068006800F0080008280CD16FF07E4068
:102660002B4600224FF400110090204600F0FEFAA5
:1026700008B1032038BD2068006800F00400042879
:102680000CD16FF07E402B4600224FF48001009069
:10269000204600F0EBFA08B10320EBE72020A0670A
:1026A000E0670020206600BF84F8740000BF00BF10
:1026B000E0E770B50546AC6A0020A4F85A00A4F81B
:1026C00052002046FFF7CEF970BD2DE9F0410546D6
:1026D000AC6AA66FE76F2068806800F080008028F1
:1026E00007D1212E05D10020A4F85200204600F089
:1026F000ADF82068806800F04000402807D1222F04
:1027000005D10020A4F85A00204600F074F8D4F84F
:10271000800040F01000C4F880002046FFF7A2F9C6
:10272000BDE8F08170B50546AC6A2868006800F025
:102730002000F8B90020A4F85A002068006820F4AE
:102740008070216808602068806820F0010021689E
:1027500088602068806820F0400021688860202020
:10276000E067206E012805D12068006820F0100085
:1027700021680860206E012805D1B4F85810204661
:10278000FFF726F902E02046FFF7C8FB70BD70B5E1
:102790000546AC6A206E012806D1B4F858004108FD
:1027A0002046FFF715F902E02046FFF7B8FB70BDA1
:1027B00070B50546AC6A2868006800F0200078B95A
:1027C0000020A4F852002068806820F08000216872
:1027D00088602068006840F040002168086002E0DE
:1027E0002046FFF7F7FB70BD70B50446A56A284682
:1027F000FFF7F1FB70BD0168096821F49071026870
:1028000011600168896821F0010102689160016E20
:10281000012905D10168096821F0100102681160E1
:102820002021C167002101664166704710B504464A
:102830002068006820F04000216808602020A06720
:102840000020A0662046FFF7C5FB10BD016809689F
:1028500021F0C001026811602021816770470000EB
:102860002DE9F84F044600200090D04920688842A6
:1028700000D100E000BF2169A068084361690843F6
:10288000E16940EA010A20680068C949084040EA55
:102890000A00216808602068406820F44050E16820
:1028A000084321684860D4F818A0C04920688842CD
:1028B00002D0206A40EA0A0A2068806820F430606A
:1028C00040EA0A002168886000BFBA49206888424F
:1028D00016D1B948006800F0030030B1012808D0D3
:1028E000022804D0032808D105E0012507E00225CD
:1028F00005E0042503E0082501E0102500BF8DE078
:10290000AE492068884216D1AB48006800F00C0040
:1029100030B1042808D0082804D00C2808D105E0DC
:10292000002507E0022505E0042503E0082501E075
:10293000102500BF72E0A2492068884216D19E4847
:10294000006800F0300030B1102808D0202804D0F2
:10295000302808D105E0002507E0022505E0042520
:1029600003E0082501E0102500BF57E095492068E5
:10297000884216D19048006800F0C00030B140286D
:1029800008D0802804D0C02808D105E0002507E041
:10299000022505E0042503E0082501E0102500BF1D
:1029A0003CE089492068884219D18348006800F4D6
:1029B000407048B1B0F5807F0AD0B0F5007F05D0F7
:1029C000B0F5407F08D105E0002507E0022505E0CD
:1029D000042503E0082501E0102500BF1EE073492F
:1029E0002068884219D17448006800F4406048B1FA
:1029F000B0F5806F0AD0B0F5006F05D0B0F5406F2C
:102A000008D105E0002507E0022505E0042503E0E4
:102A1000082501E0102500BF00E0102500BF634934
:102A20002068884245D135B1022D08D0042D08D048
:102A3000082D0DD109E0FEF799FB06460CE0634E28
:102A40000AE0FEF7B7FB064606E04FF4004603E057
:102A500000260120009000BF00BF002E0AD0606851
:102A600000EB4000B04203D860680003B04202D2DD
:102A70000120009093E04FF48070A6FB0030D4F862
:102A800004C04FEA5C015F1840F100016246002378
:102A90003846FDF797FB8146B9F5407F06D3B9F577
:102AA000801F03D22068C0F80C9078E001200090CD
:102AB00075E0E069B0F5004F3CD1092D17D2DFE891
:102AC00005F005090D160F1616161300FEF74EFB3E
:102AD000064610E0FEF75CFB06460CE03B4E0AE0C3
:102AE000FEF768FB064606E04FF4004603E00026CA
:102AF0000120009000BF00BF7EB37000616800EB52
:102B00005100B0FBF1F01FFA80F9B9F1100F0ED3AC
:102B1000B9F5803F0BD24FF6F07009EA000BC9F30C
:102B200042004BEA000B2068C0F80CB037E00120EF
:102B3000009034E0092D18D2DFE805F005090D17E3
:102B4000101717171400FEF711FB064611E0FEF7E9
:102B50001FFB06460DE01D4E0BE020E0FEF72AFBB2
:102B6000064606E04FF4004603E0002601200090F0
:102B700000BF00BF9EB1606806EB50006168B0FB0B
:102B8000F1F01FFA80F9B9F1100F06D3B9F5803FC3
:102B900003D22068C0F80C9001E0012000900020D2
:102BA0006066A0660098BDE8F88F000000800040D5
:102BB000F369FFEF003801408810024000440040F4
:102BC00000480040004C0040005000400024F40049
:102BD00070B504460E4615466665A4F858500020A8
:102BE000C4F880002220E067206F00B31C48216FEA
:102BF000C8621C48216F08631B48216F486300208E
:102C0000216F8863236803F124012B46626D206FD6
:102C1000FDF7FCFC58B11020C4F8800000BF002074
:102C200084F8740000BF2020A067012070BD00BFA1
:102C3000002084F8740000BF2068006840F48070B1
:102C4000216808602068806840F001002168886081
:102C50002068806840F04000216888600020E5E737
:102C6000252700088F270008CB2600082DE9F04112
:102C700004460D4617469846069E46E0701C0028FE
:102C800043D0FDF723FEA0EB0800B04200D8B6B950
:102C90002068006820F4D07021680860206880688F
:102CA00020F00100216888602020A067E06700BF55
:102CB000002084F8740000BF0320BDE8F081206884
:102CC000006800F0040000B32068C069C0F3C020B1
:102CD000D8B14FF40060216808622068006820F4D1
:102CE000D070216808602068806820F001002168A9
:102CF00088602020A067E067C4F8800000BF002043
:102D000084F8740000BF0320D7E72068C06928401A
:102D1000A84201D1012000E00020B842AED000203E
:102D2000CBE7000010B5034800F008F80148FEF7B3
:102D30009BFE10BD1803002000BFFEE770B50446DF
:102D40002068C069C0F30010F0B11020216808624B
:102D50002046FEF73FFE206F00684568FF2D00D932
:102D6000FF250A49206888420ED1C5F1FF000849B5
:102D700048800846007820F00100401C0870FF22BF
:102D8000091D0448FFF798F870BD000000380140A5
:102D9000100100201803002002480068C0F3022040
:102DA000704700000CED00E010B5002804DB0A07B6
:102DB000130E054A135406E00A07140E034A00F0E6
:102DC0000F031B1FD45410BD00E400E018ED00E019
:102DD00002E008C8121F08C1002AFAD170477047E4
:102DE000002001E001C1121F002AFBD17047000042
:102DF000FDF77EFDFFF74BFBFFF712F9FFF7EEF84B
:102E0000FFF754F910200A49096808620848006869
:102E1000006840F01000064909680860FF22054973
:102E20000348FFF749F801E0FDF740FAFCE700002E
:102E30001803002014010020000000000000000022
:102E40000102030406070809000000000102030450
:102E5000A0860100400D0300801A060000350C001A
:102E600040420F0080841E0000093D0000127A00DD
:102E70000024F40000366E010048E801006CDC021A
:102E8000A02E00080000002010000000D02D000837
:102E9000B02E00081000002020080000E02D0008DF
:102EA00000093D00000000001000000001000000CB
:040000050800018965
:00000001FF
