:020000040800F2
:100000000080012009100008ED0F0008EF0F000824
:10001000F10F0008F30F0008F50F000800000000C2
:10002000000000000000000000000000F70F0008C2
:10003000F90F000800000000FB0F0008FD0F00088A
:1000400059100008591000085910000859100008EC
:1000500059100008591000085910000859100008DC
:1000600059100008591000085910000859100008CC
:1000700059100008591000085910000859100008BC
:1000800059100008591000085910000859100008AC
:10009000591000085910000859100008591000089C
:1000A000591000085910000859100008591000088C
:1000B000591000085910000859100008591000087C
:1000C000591000085910000859100008591000086C
:1000D000591000085910000859100008591000085C
:1000E000591000085910000859100008591000084C
:1000F000591000085910000859100008591000083C
:10010000591000085910000859100008591000082B
:10011000591000085910000859100008591000081B
:10012000591000085910000859100008591000080B
:1001300059100008591000085910000859100008FB
:1001400059100008591000085910000859100008EB
:1001500059100008591000085910000859100008DB
:1001600059100008591000085910000859100008CB
:10017000591000085910000800000000000000009D
:08018000591000085910000895
:1001880010B5054C237833B9044B13B10448AFF3C9
:1001980000800123237010BD100000200000000023
:1001A800B410000808B5034B1BB103490348AFF36B
:1001B800008008BD0000000014000020B4100008F2
:1001C800104B1B780BB90120704710B504464FF44B
:1001D8007A70B0FBF3F30C4A1068B0FBF3F000F050
:1001E80093F868B90F2C01D901200AE000222146B2
:1001F8004FF0FF3000F054F8044B1C60002000E082
:10020800012010BD0000002008000020040000208C
:1002180010B5032000F032F80F20FFF7D1FF10B11E
:100228000124204610BD044600F0C4FEF9E7000092
:10023800034B1B78034A11680B441360704700BFD7
:10024800000000202C000020014B1868704700BFF8
:100258002C00002038B50446FFF7F6FF0546B4F138
:10026800FF3F02D0044B1B781C44FFF7EDFF401BF7
:10027800A042FAD338BD00BF00000020074AD36867
:1002880023F4E0631B041B0C000200F4E060184335
:1002980040F0BF6040F40030D060704700ED00E0EF
:1002A80030B4174BDB68C3F30223C3F10704042CF3
:1002B80028BF04241D1D062D01D9033B00E000239F
:1002C8004FF0FF3505FA04F421EA0401994005FAD4
:1002D80003F322EA03031943002809DB0901C9B221
:1002E80000F1604000F5614080F8001330BC7047B1
:1002F80000F00F000901C9B2024B1954F6E700BF1C
:1003080000ED00E014ED00E00138B0F1807F0AD282
:10031800064B5860064AF02182F8231000209860A6
:1003280007221A6070470120704700BF10E000E004
:1003380000ED00E0F0B482B0002364E086685F005E
:100348000325BD4026EA0506CD68BD4035438560D6
:10035800466826EA04064D68C5F300159D403543F6
:1003680045605EE0C66A26EA0406C5F3C0049C4000
:100378003443C4625AE0DD08083550F8257003F0AC
:100388000704A6000F24B44027EA04070C69B44008
:100398003C4340F825405DE0062400E00024B440DA
:1003A8003C430235544E46F82540544CA568D44386
:1003B80004EA05064F6817F4801F01D042EA0506D3
:1003C8004E4DAE60ED6804EA05064F6817F4001F4D
:1003D80001D042EA0506494DEE606D6804EA05065B
:1003E8004F6817F4003F01D042EA0506434D6E609E
:1003F8002D682C404E6816F4803F01D042EA05046F
:100408003E4A146001330A6832FA03F470D00124BA
:100418009C402240F6D04D6805F00305013D012DB2
:100428008CD94D6805F00306032E9BD04C6804F068
:100438000304032C09D0C5685E000324B44025EAF0
:1004480004058C68B4402C43C4604C6804F0030471
:10045800022C90D005685E000324B44025EA040508
:100468004C6804F00304B4402C4304604C6814F452
:10047800403FC7D0224C256E45F001052566246E05
:1004880004F001040194019C9D08AE1C1A4C54F818
:10049800267003F00304A6000F24B44027EA0407DB
:1004A800B0F1904F3FF47AAF164CA04216D004F545
:1004B8008064A04214D004F58064A04212D004F5F0
:1004C8008064A04210D004F58064A0420ED004F5E8
:1004D8008064A0423FF460AF072460E701245EE730
:1004E80002245CE703245AE7042458E7052456E766
:1004F80002B0F0BC704700BF00000140000401409A
:1005080000100240000400480AB18161704781620E
:100518007047436901EA030221EA030141EA024103
:1005280081617047024B186800F4C060704700BFD3
:1005380000700040B0F5007F0FD01E4B1B6803F41D
:10054800C063B3F5806F33D01A4A136823F4C063CD
:1005580043F48063136000207047164B1B6803F454
:10056800C063B3F5007F1FD0124A136823F4C06339
:1005780043F400731360104B1A68322303FB02F331
:100588000E4AA2FB03239B0C01330A4A526912F458
:10059800806F02D00BB1013BF7E7064B5B6913F4A0
:1005A800806F03D1002070470020704703207047F8
:1005B80000207047007000400800002083DE1B43C5
:1005C80030B583B00546204B9B6D13F0805F0BD090
:1005D800FFF7A8FFB0F5007F17D0802D1FD82DD0CA
:1005E800702D2DD000211BE0174CA36D43F08053D4
:1005F800A365A36D03F080530193019BFFF792FF5E
:10060800A36D23F08053A365E4E7802D03D9A02DC3
:1006180003D9022104E0002102E0012100E00321C6
:100628000A4A136823F007030B431360136803F0A7
:1006380007038B4206D1002003B030BD0221EFE74B
:100648000121EDE70120F7E70010024000200240F9
:10065800284A9368D26802F0030213F00C030AD008
:100668000C2B06D0042B1FD0082B20D000200246CC
:1006780010E0012AF6D11F4A126812F0080F0CD1B7
:100688001C4AD2F89420C2F303221B4951F82220B5
:1006980043B100200C2B0DD07047164A1268C2F3E4
:1006A8000312F2E71046F5E714480022F2E714486F
:1006B8000022EFE70F4BDB6803F00303022B15D092
:1006C800032B15D00B4BD868C0F302100130D96842
:1006D800C1F3062102FB01F2B2FBF0F2D868C0F3C5
:1006E800416001304000B2FBF0F0D5E7034AE9E78A
:1006F800034AE7E700100240E01000080024F40075
:1007080000127A00002800F00183F0B583B0044697
:10071800AF4B9D6805F00C05DE6806F0030603681C
:1007280013F0100F5BD0E5B10C2D18D0A369002B86
:1007380000F0BC80A64A136843F001031360FFF77A
:1007480083FD0746A24B1B6813F0020F40F09B8005
:10075800FFF77AFDC01B0228F4D90323E2E2012E39
:10076800E4D19B4B1B6813F0020F03D0A369002B45
:1007780000F0CF82206A964B1B6813F0080F5CD0FC
:10078800934B1B6803F0F00398425DD8904B1A68AE
:1007980042F008021A601A6822F0F002216A0A433D
:1007A8001A605A6822F47F42E16942EA01225A60DB
:1007B800002D61D0FFF74CFF854B9B68C3F30313F3
:1007C800844AD35C03F01F03D840834B1860834BE3
:1007D8001868FFF7F5FC0346002840F0A382236859
:1007E80013F0010F00F08180082D75D00C2D71D009
:1007F8006368B3F5803F00F09780B3F5A02F00F051
:100808009980734B1A6822F480321A601A6822F4AD
:1008180080221A606368002B00F09980FFF714FDAE
:1008280007466B4B1B6813F4003F5ED1FFF70CFDC6
:10083800C01B6428F5D9032374E2654BD3F89430C0
:100848001B0903F0F0039FE7FFF7BAFE002840F00A
:1008580062825F4B1A6842F008021A601A6822F036
:10086800F002216A0A431A605A6822F47F42E16959
:1008780042EA01225A609DE7206AFFF7A1FE00289C
:1008880098D001234EE2524B1A6842F008021A60CF
:100898001A6822F0F002216A0A431A605A6822F4A0
:1008A8007F42E16942EA01225A6098E7484A1368A0
:1008B80023F001031360FFF7C7FC0746444B1B688E
:1008C80013F0020F8BD0FFF7BFFCC01B0228F5D92D
:1008D800032327E2032E8BD13D4B1B6813F4003F03
:1008E80003D06368002B00F01882236813F0020F0E
:1008F8004FD0042D3CD00C2D38D0E368002B78D095
:10090800334A136843F480731360FFF79DFC06466F
:100918002F4B1B6813F4806F62D1FFF795FC801B87
:100928000228F5D90323FDE1294A136843F48033EB
:1009380013606FE703F18043A3F53C331A6842F470
:1009480080221A601A6842F480321A6062E7FFF760
:100958007BFC07461E4B1B6813F4003FC5D0FFF70E
:1009680073FCC01B6428F5D90323DBE1022EC4D134
:10097800174B1B6813F4806F03D0E368002B00F05B
:10098800CE81134A536823F0F853216943EA01637F
:100998005360236813F0080F56D06369002B3CD0CE
:1009A8000B4AD2F8943043F00103C2F89430FFF7B1
:1009B8004BFC0646064BD3F8943013F0020F43D194
:1009C800FFF742FC801B0228F4D90323AAE100BFE9
:1009D80000100240D0100008080000200400002089
:1009E800B84A536823F0F853216943EA0163536016
:1009F800CFE7B44A136823F480731360FFF724FC2D
:100A08000646B04B1B6813F4806FC2D0FFF71CFC7E
:100A1800801B0228F5D9032384E1AA4AD2F894302E
:100A280023F00103C2F89430FFF70EFC0646A54BED
:100A3800D3F8943013F0020F06D0FFF705FC801BA3
:100A48000228F4D903236DE1236813F0040F7AD048
:100A58009C4B9B6D13F0805F36D19A4B9A6D42F098
:100A680080529A659B6D03F080530193019B012688
:100A7800954B1B6813F4807F28D0A368012B39D0CD
:100A8800052B3FD08F4BD3F8902022F00102C3F8FA
:100A98009020D3F8902022F00402C3F89020A36895
:100AA800002B3DD0FFF7D0FB0746864BD3F890309C
:100AB80013F0020F46D1FFF7C7FBC01B41F2883382
:100AC8009842F2D903232DE10026D1E77E4A136824
:100AD80043F480731360FFF7B7FB07467A4B1B6834
:100AE80013F4807FC9D1FFF7AFFBC01B0228F5D9EB
:100AF800032317E1734AD2F8903043F00103C2F898
:100B08009030CCE76F4BD3F8902042F00402C3F842
:100B18009020D3F8902042F00102C3F89020BEE75D
:100B2800FFF792FB0746674BD3F8903013F0020F9C
:100B380008D0FFF789FBC01B41F288339842F2D9ED
:100B48000323EFE06EBBA36A002B00F0EA80022BC0
:100B58002DD00C2D00F0ED805A4B1A6822F08072CF
:100B68001A601B6813F0205F04D1564AD36823F03B
:100B78000303D360534AD36823F0887323F4803384
:100B8800D360FFF761FB04464E4B1B6813F0007FF0
:100B980000F0BA80FFF758FB001B0228F4D90323A2
:100BA800C0E0484A936D23F080539365CBE7454BEB
:100BB800DB6803F00301E26A91420FD00C2D00F0CC
:100BC800B480404B1B6813F0806F40F0B0803D4B01
:100BD8001B6813F0805F2DD00123A3E003F070029F
:100BE800216B0139B2EB011FE8D103F4FE42616BBE
:100BF800B2EB012FE2D103F40031A26B073A18BF20
:100C080001229142DAD103F4C001E26B5208013AA1
:100C1800B1EB425FD2D103F0C063226C5208013AB3
:100C2800B3EB426FCAD1274B1B6813F0007F51D03A
:100C3800002377E0234A136823F080731360FFF7DB
:100C480003FB05461F4B1B6813F0007F06D0FFF718
:100C5800FBFA401B0228F5D9032363E0194AD3683D
:100C68001A491940E36A206B013843EA0013606BA4
:100C780043EA0023E06B4008013843EA4053206C04
:100C88004008013843EA4063A06B000943EA404347
:100C98000B43D360136843F080731360D36843F049
:100CA8008073D360FFF7D0FA0446064B1B6813F035
:100CB800007F0DD1FFF7C8FA001B0228F5D90323DE
:100CC80030E000BF00100240007000408C809DF9A9
:100CD800002327E0184B1A6842F080721A60DA681D
:100CE80042F08072DA60FFF7AFFA0446124B1B68D5
:100CF80013F0007F06D1FFF7A7FA001B0228F5D9E9
:100D080003230FE000230DE000230BE00123184626
:100D18007047012306E0012304E0012302E00123D8
:100D280000E00023184603B0F0BD0123FAE70123D1
:100D3800F8E70123F6E700BF00100240002800F0A2
:100D4800988070B504464F4B1B6803F007038B422D
:100D58000BD24C4A136823F007030B431360136844
:100D680003F007038B4240F086800D46236813F09A
:100D7800010F39D06368032B09D0022B26D063BB3F
:100D8800414A126812F0020F06D1012070E03E4A73
:100D9800126812F0007F70D03B498A6822F0030283
:100DA80013438B60FFF750FA0646374B9B6803F0F6
:100DB8000C036268B3EB820F16D0FFF745FA801B6D
:100DC80041F288339842F0D9032051E02E4A126844
:100DD80012F4003FE0D101204AE02B4A126812F4D5
:100DE800806FD9D1012043E0236813F0020F06D0A9
:100DF800254A936823F0F003A1680B439360214BC5
:100E08001B6803F00703AB420AD91E4A136823F094
:100E180007032B431360136803F00703AB422ED17B
:100E2800236813F0040F06D0174A936823F4E0638D
:100E3800E1680B439360236813F0080F07D0124A48
:100E4800936823F46053216943EAC1039360FFF771
:100E5800FFFB0D4B9B68C3F303130C4AD35C03F0F1
:100E68001F03D8400A4B18600A4B1868FFF7A8F907
:100E780070BD012070470120FAE70120F8E7012042
:100E8800F6E700BF0020024000100240D010000822
:100E9800080000200400002030B589B00024039425
:100EA8000494059406940794174BDA6C42F0800278
:100EB800DA64DA6C02F080020092009ADA6C42F08E
:100EC8001002DA64DA6C02F010020192019ADA6C0C
:100ED80042F00102DA64DB6C03F001030293029B27
:100EE8000A4D22464FF480712846FFF70DFB4FF458
:100EF80080730393012304930594069403A9284659
:100F0800FFF718FA09B030BD001002400010004881
:100F180072B6FEE700B597B04422002105A800F09C
:100F2800BDF80023009301930293039304934FF4B5
:100F38000070FFF7FFFA18BB012205924FF48033C7
:100F4800069302230F9303211091119214221292F7
:100F5800072213921493159305A8FFF7D3FB88B9BA
:100F68000F23009303230193002302930393049315
:100F780004216846FFF7E2FE30B917B05DF804FBBC
:100F8800FFF7C6FFFFF7C4FFFFF7C2FF08B5FFF77B
:100F98003FF9FFF7BFFFFFF77FFF4FF47A70FFF7C6
:100FA80059F94FF480710248FFF7B3FAF5E700BF2B
:100FB8000010004882B00A4B1A6E42F001021A660D
:100FC8001A6E02F001020092009A9A6D42F0805265
:100FD8009A659B6D03F080530193019B02B07047A3
:100FE80000100240FEE7FEE7FEE7FEE7FEE7704777
:100FF8007047704708B5FFF71BF908BD7047000038
:10100800DFF834D0FFF7FAFF0C480D490D4A0023EA
:1010180002E0D458C4500433C4188C42F9D30A4AA5
:101028000A4C002301E013600432A242FBD300F013
:1010380011F8FFF7ABFFFEE7008001200000002059
:1010480010000020201100081000002030000020AF
:10105800FEE7000070B50D4D0D4C641BA410002672
:10106800A64209D10B4D0C4C00F020F8641BA410CB
:101078000026A64205D170BD55F8043B98470136B5
:10108800EEE755F8043B98470136F2E710110008DF
:10109800101100081011000814110008024403463A
:1010A800934200D1704703F8011BF9E7F8B500BF78
:1010B800F8BC08BC9E467047F8B500BFF8BC08BC31
:0810C8009E4670470000000085
:1010D00000000000000000000102030406070809E8
:1010E000A0860100400D0300801A060000350C00A8
:1010F00040420F0080841E0000093D0000127A006B
:101100000024F40000366E010048E801006CDC02A7
:08111000AD0100080000000021
:0811180089010008000000003D
:10112000010000001000000000093D000000000068
:0400000508001009D6
:00000001FF
